:040000000200543274
:03000B000200D21E
:200010000000E2FBEAF2802C0000E0FBEAF08024E6B50202EBF62200E2B50202EBF22200D6
:20003000E0B50202EBF02230F6E0A88220F5D3EAC6F582228B822230F6E6A88220F5D980E6
:01005000CFE0
:2000AD00750832750900750A00E4F50BF50CF50DF50EF50FF510F511F512F513F514F5156C
:0500CD00F516020051D0
:030051000202F3B5
:2000D200C0E0C0D0C3E50A95085004C2A68002D2A6050A749C250A5006750A00750901D067
:2000F200D0D0E03220A44430A54120A415E50D7009E5086005E50814F508E50D249B400297
:20011200050D30A40AE50D6006750D00750E00E50D249B400122050EE50E24F55063750E17
:2001320000E508605CE50814F5082220A54730A44420A517E50D700B749C25084005E50808
:2001520004F508E50D249B4002050D30A50AE50D6006750D00750E00E50D249B5023050E14
:20017200E50E24F5501B750E00749C25084012E50804F5082230A40930A506750E00750D17
:200192000022758902758CEC758AECD2A9D2AFD28C22E4F50FF510FFBF0A0050528F057E6E
:2001B2000074012DF518E43EF51990000AC007120359AD82AE83D007AB087C00C3EB9DECE2
:2001D20064808EF063F08095F040218FF005F07D017E008006ED2DFDEE33FED5F0F7AB0F50
:2001F200AC10EB4205EC42068D0F8E100F80A922E5112511FEE51233FF4306018E118F125A
:20021200E50F250FFEE51033FF430601AC11AD12C3EC9EED9F4005E4F511F512E50F551150
:20023200F513E5105512F514E513540124FF92A3E51303540124FF92A2E51303035401247C
:20025200FF92A1E513A2E3E43324FF92A0E513C4540124FF9297E513A2E5E43324FF929633
:20027200E5132323540124FF9295E51323540124FF9294E514540124FF9293E514035401EF
:2002920024FF92922230A40320A51CAF0875F00AEF8490037A93F516AF0875F00AEF84E569
:2002B200F090037A93F517E508700CC2A7D2B290037AE493F580227464B50808D2A7D2B285
:2002D2007580BF22C2A7C2B2758000E5157009851680D2A775150122851780D2B275150086
:2002F20022AF0875F00AEF8490037A93F516AF0875F00AEF84E5F090037A93F5171201A4B5
:200312007F007E00C007C006120194D006D007E50960FC750900C007C0061202971200F6E5
:20033200D006D0070FBF0A0040027F000EBE640040DD7E0030A40320A5D5C007C006120189
:07035200A4D006D00780C80B
:0A037A003F065B4F666D7D077F6F45
:06008300E478FFF6D8FD51
:200061007900E94400601B7A00900384780175A000E493F2A308B8000205A0D9F4DAF275BE
:02008100A0FFDE
:1D035900E5828518F0A4C582C0F08519F0A4D0F025F0C5838518F0A42583F5832236
:200089007800E84400600A790175A000E4F309D8FC7800E84400600C7900900001E4F0A375
:0400A900D8FCD9FAAC
:0D005400758119120376E5826003020051E8
:04037600758200226A
:00000001FF
